:10000000C06300200DBC000085360200A5BB0000C7
:10001000A5BB0000A5BB0000A5BB000000000000C0
:1000200000000000000000000000000065AC0000BF
:10003000A5BB000000000000E9AB0000A5BB00006C
:10004000C5AD0000C5AD0000C5AD0000C5AD0000E8
:10005000C5AD0000C5AD0000C5AD0000C5AD0000D8
:10006000C5AD0000C5AD0000C5AD0000C5AD0000C8
:10007000C5AD0000C5AD0000C5AD0000C5AD0000B8
:10008000C5AD0000C5AD0000C5AD0000C5AD0000A8
:10009000C5AD0000C5AD0000C5AD0000C5AD000098
:1000A000C5AD0000C5AD0000C5AD0000C5AD000088
:1000B000C5AD0000C5AD0000C5AD0000C5AD000078
:1000C000C5AD0000C5AD0000C5AD0000C5AD000068
:1000D000C5AD0000C5AD0000C5AD0000C5AD000058
:1000E000C5AD0000C5AD0000C5AD0000C5AD000048
:1000F000C5AD0000C5AD0000C5AD0000C5AD000038
:1001000053B94AB9002908BF00281CBF4FF0FF317E
:100110004FF0FF3000F00CB8ADF1080C6DE904CEE3
:1001200000F008F8DDF804E0DDE9022304B07047D0
:10013000704700BF2DE9F04786468C460846089E6A
:10014000154674461946002B40F0C2808542B2FA2B
:1001500082F245D94AB1C2F1200300FA02FC2EFA1C
:1001600003F3954043EA0C0C94404FEA154EA8B2B5
:10017000BCFBFEF8230C0EFB18CC08FB00F943EA8D
:100180000C43994528D9EB1808F1FF3704D299455B
:1001900002D9A8F102072B44A3EB0903A4B2B3FBD5
:1001A000FEFC0EFB1C330CFB00F044EA0344A042AF
:1001B00014D92C190CF1FF3304D2A04202D9ACF1AE
:1001C00002032C44241A43EA07401EB1D440002302
:1001D00034607360BDE8F0874746DDE76346F1E7CA
:1001E00092BB431B01214FEA154EAFB2B3FBFEFC9D
:1001F000200C0EFB1C330CFB07F840EA0343984528
:1002000062D9EB180CF1FF3004D2984502D9ACF159
:1002100002002B44A3EB0803A4B2B3FBFEFC0EFBCD
:100220001C330CFB07F744EA0344A7424ED92C19B0
:100230000CF1FF3304D2A74202D9ACF102032C44E3
:10024000E41B43EA0040C0E7C2F1200320FA03F1B7
:10025000954090402EFA03F303434FEA154EAFB298
:10026000B1FBFEFC0EFB1C10190C0CFB07F841EA5D
:100270000041884504FA02F422D969180CF1FF30D4
:1002800004D2884502D9ACF102002944A1EB08014F
:100290009BB2B1FBFEFC0EFB1C110CFB07F743EA03
:1002A00001439F420ED9EB180CF1FF3104D29F425B
:1002B00002D9ACF102012B44DB1B41EA004192E779
:1002C0006046E3E76146F7E76046A3E76346B7E7C2
:1002D000834206D916B9002108467BE7C6E900E04B
:1002E000F9E7B3FA83F78FB9834201D3724508D88F
:1002F000BEEB020460EB030301209C461EB9002103
:1003000068E73846FAE7C6E9004CF8E7C7F1200C81
:10031000BB4022FA0CF41C432EFA0CF120FA0CF329
:10032000B84001434FEA14490EFA07F5B3FBF9F858
:100330001FFA84FE09FB18300B0C08FB0EFA43EA87
:1003400000439A4502FA07F240D9E31808F1FF305A
:1003500004D29A4502D9A8F102002344A3EB0A0370
:1003600089B2B3FBF9F809FB183308FB0EFE41EA2A
:1003700003418E452CD9611808F1FF3304D28E4514
:1003800002D9A8F10203214443EA0040A0FB0298ED
:10039000A1EB0E014145CE46434602D306D14D4561
:1003A00004D2B9EB020E68EB04030138002EA6D08C
:1003B000B5EB0E0261EB030101FA0CFC22FA07F324
:1003C0004CEA0303F940C6E9003198E74046C5E727
:1003D0004346D9E7034613F8012B002AFBD1181A2C
:1003E000013870472DE9F04FBDB000AFC7E93001CB
:1003F000D7E93023C7E93A234FF47A73C7F8E430DA
:100400004FF40043C7F8E030012387F8DF300023C2
:1004100087F8DE30012387F8DD30002387F8DC30F1
:1004200097F8DF30002B14D0D7F8E420D7F8E0306D
:100430009A420ED2D7F8E010D7F8E430B1FBF3F2CD
:10044000D7F8E43002FB03F3CB1A002B01D10123D0
:1004500000E0002387F8DB3097F8DB3003F001037E
:1004600087F8DB3097F8DF30002B14D0D7F8E42082
:10047000D7F8E0309A420ED9D7F8E410D7F8E03038
:10048000B1FBF3F2D7F8E03002FB03F3CB1A002BF9
:1004900001D1012300E0002387F8DA3097F8DA3041
:1004A00003F0010387F8DA30D7F8E420D7F8E0301A
:1004B0009A420CD197F8DE30002B05D0D7F8E830FF
:1004C00000221C461546DEE1D7E93A45DBE14FF054
:1004D00000024FF00003C7E9342397F8DB3083F0C4
:1004E0000103DBB2002B2AD097F8DA30002B06D0BC
:1004F000D7F8E420D7F8E030B2FBF3F301E0D7F807
:10050000E430C7F8CC3097F8DD30002B09D0D7F8AD
:10051000CC30013B00223B617A61D7E90423C7E973
:10052000342397F8DC30002B09D0D7F8CC305B08A7
:100530000022BB60FA60D7E90223C7E9342397F8A9
:10054000DA30002B38D0D7E93A01D7E934238618BE
:100550003E6041EB03037B60D7E90023C7E93A2300
:1005600097F8DE30002B11D0D7E93A23012B0DD2BA
:10057000D7F8E820D7F8E410D7F8E030B1FBF3F370
:10058000B2FBF3F300221C4615467CE1D7F8E420C9
:10059000D7F8E030B2FBF3F30022C7F89830C7F881
:1005A0009C20D7E92623D7E93A01FFF7A9FD0246A7
:1005B0000B4614461D4666E197F8DB30002B31D020
:1005C00097F8DE30002B0DD0D7F8E830D7F8E010E0
:1005D000D7F8E420B1FBF2F202FB03F300221C4641
:1005E000154650E1D7F8E020D7F8E430B2FBF3F33A
:1005F0000022C7F89030C7F89420D7F8E830D7E940
:1006000024894A4602FB03F2D7F8EC30414601FB4D
:1006100003F31344D7F8E8204146A2FB01452B44DD
:100620001D4630E197F8DE30002B35D0D7F8E030AA
:100630000022C7F88830C7F88C20D7F8E830D7E90F
:1006400022AB5A4602FB03F2D7F8EC30514601FBCD
:1006500003F31344D7F8E8205146A2FB01894B4429
:100660009946D7E9342318EB0201C7F8801049EB0B
:100670000303C7F88430D7F8E4300022BB67FA6779
:10068000D7E91E23D7E92001FFF73AFD02460B46C2
:10069000002314461D46F6E097F8DF30002B00F0EB
:1006A0008280D7F8E43000223B677A677A4BD7E93B
:1006B0001C894A4603FB02F20023414601FB03F377
:1006C0001A44754B4146A1FB03AB02EB0B039B465F
:1006D000BAF10203BB664BF10003FB664FF0FF3239
:1006E0004FF00003D7E91A01FFF70AFD02460B4657
:1006F00010461946D7F8E03000223B667A66D7E903
:100700001889434603FB01F24B4600FB03F31344F5
:100710004246A0FB0221C7F8BC10C7F8B820D7F8A2
:10072000BC201344C7F8BC30D7F8BC30012B3AD2F8
:10073000D7F8E0300022BB65FA65D7F8E830D7E992
:1007400016452A4602FB03F2D7F8EC30214601FB9E
:1007500003F31344D7F8E8202146A2FB0121C7F890
:10076000B410C7F8B020D7F8B4201344C7F8B43099
:10077000D7E93423D7E92C4521468918396529461C
:1007800043EB01017965D7F8E4300022BB64FA64D9
:10079000D7E91223D7E91401FFF7B2FC02460B4652
:1007A00014461D466FE0D7F8E43000223B647A64BB
:1007B000D7E91023D7E93A01FFF7A2FC02460B461E
:1007C00010461946D7F8E0300022BB63FA63D7E938
:1007D0000E89434603FB01F24B4600FB03F313442F
:1007E0004246A0FB0221C7F8AC10C7F8A820D7F8F2
:1007F000AC201344C7F8AC30D7F8E43000223B6398
:100800007A63D7E93A01D7E90C23FFF779FC104660
:100810001946D7F8E0300022BB62FA62D7E90A89AC
:10082000434603FB01F24B4600FB03F313444246ED
:10083000A0FB0221C7F8A410C7F8A020D7F8A42075
:100840001344C7F8A430D7E93423D7E928894146AF
:1008500089183962494643EB01017962D7F8E430DF
:100860000022BB61FA61D7E90623D7E90801FFF747
:1008700047FC02460B46D7E92A8941468C1849466F
:1008800043EB01010D4622462B4610461946F4372C
:10089000BD46BDE8F08F00BF8033E10180B588B070
:1008A00000AFF8600B467A60FB72FB689B68FB61E7
:1008B000FB685B68BB61FB681B697B617B6803F05D
:1008C000FC63002B0ED040F2C7336B4A6B496C4877
:1008D00021F04AF86B4821F047F840F2C7316648EA
:1008E00021F032F87B6803F03003302B0ED140F258
:1008F000CA33614A6449624821F036F8634821F0FE
:1009000033F840F2CA315C4821F01EF87B6803F4EA
:100910008033002B18D07B6803F40033002B13D1F5
:100920007B6803F00203002B0ED040F2CE33524A14
:100930005749534821F018F8564821F015F840F26D
:10094000CE314D4821F000F87B6803F00203002B04
:1009500010D17B6803F00403002B0BD040F2D1339D
:10096000454A4D49464820F0FFFF40F2D131424808
:1009700020F0EAFF7B6803F44023002B13D07B6850
:1009800003F40033002B0ED14FF475733A4A4349F8
:100990003B4820F0E9FF424820F0E6FF4FF4757134
:1009A000354820F0D1FF7B6803F44023B3F5402F96
:1009B0000ED14FF47673304A3A49314820F0D4FFD3
:1009C000394820F0D1FF4FF476712B4820F0BCFF5E
:1009D0007B6803F48013002B0DD07B6803F4402365
:1009E000002B08D07B6803F00103002B03D07B6849
:1009F00083F440237B607B6823F480137B60BB69B6
:100A00001A68FB7A012101FA03F31340002B0ED17F
:100A10004FF47973184A2549194820F0A5FF244856
:100A200020F0A2FF4FF47971134820F08DFF7B680E
:100A300003F00103002B09D07B691A68FB7A0121BE
:100A400001FA03F31A437B691A6009E07B691A68AB
:100A5000FB7A012101FA03F3DB431A407B691A6038
:100A6000FB691B68F97A7A68F86898470346184664
:100A70002037BD4680BD00BFF0AA020024AB0200B3
:100A800084AB0200A4AB0200C8AB020004AC0200BD
:100A900044AC02008CAC0200DCAC020010AD0200E1
:100AA00058AD020094AD0200D8AD020004AE0200C1
:100AB00044AE020080B584B000AF78600B46FB7096
:100AC0007B685B68FB60FB681A68FB78012101FAB0
:100AD00003F31340002B0ED14FF4CF630C4A0D49A2
:100AE0000D4820F041FF0D4820F03EFF4FF4CF614C
:100AF000074820F029FFFB78012202FA03F3194688
:100B000078681FF03EFE034618461037BD4680BD8C
:100B1000F0AA020004AE020084AB020044AE020060
:100B200080B582B000AF14481FF0D2FD034683F0B9
:100B30000103DBB2002B17D14FF4D0110E481FF088
:100B4000D5FD78607B68002B10DB0C481EF040FB65
:100B500009481FF0F3FD78607B68002B08DB4FF439
:100B6000FA701FF075FDF0E700BF02E000BF00E083
:100B700000BF0837BD4680BDA81B030058AE020069
:100B800080B582B000AF14481FF0A2FD034683F089
:100B90000103DBB2002B16D14FF4D0110E481FF029
:100BA000A5FD78607B68002B0FDB0C481EF010FB66
:100BB00009481FF0C3FD78607B68002B07DBC82065
:100BC0001FF046FDF1E700BF02E000BF00E000BFFC
:100BD0000837BD4680BD00BFA01B03006CAE0200FD
:100BE00080B582B000AF14481FF072FD034683F059
:100BF0000103DBB2002B17D14FF4D0110E481FF0C8
:100C000075FD78607B68002B10DB0C481EF0E0FA65
:100C100009481FF093FD78607B68002B08DB4FF4D8
:100C20007A701FF015FDF0E700BF02E000BF00E0A2
:100C300000BF0837BD4680BDB01B03006CAE02008C
:100C400080B582B000AF14481FF042FD034683F028
:100C50000103DBB2002B17D14FF4D0110E481FF067
:100C600045FD78607B68002B10DB0C481EF0B0FA65
:100C700009481FF063FD78607B68002B08DB4FF4A8
:100C80007A701FF0E5FCF0E700BF02E000BF00E073
:100C900000BF0837BD4680BD981B03006CAE020044
:100CA00080B483B000AF78607B68094A934205D373
:100CB0007B68084A934201D2012300E0002303F03D
:100CC0000103DBB218460C37BD4680BC704700BF3D
:100CD000A4A60200DC28030080B5A4B000AFF86031
:100CE000B9607A603B60FB68FB65FB6DC7F88C30D0
:100CF0000023C7F880300023FB670023BB674FF059
:100D0000FF337B67002387F86B307B6803F00403B5
:100D1000002B14BF0123002387F85B307B68DB08BE
:100D200003F0070301337B66002387F86330FB6819
:100D30007B65FB6803F00303002B02D06FF00D030B
:100D4000DCE3D7F88C300433C7F88C30FB6D002B14
:100D50000DD1BB6803F00703D7F88C201344C7F804
:100D60008C30BB6803F00703C3F10803BB60FB6D65
:100D7000002B0AD0D7F88C20FB6DD31A0433BA6845
:100D80009A4202D26FF01B03B8E33B685A1E3A60E6
:100D9000FB660423C7F884300423C7F8883098E141
:100DA00097F86B3083F00103DBB2002B11D03B6866
:100DB0001B78252B40F09F82012387F86B307B6FD7
:100DC00001337B670423C7F884300423C7F88830D5
:100DD00091E23B681B787A2B00F34A814C2B11DAA5
:100DE000472B00F345812A2B72DA252B00F09380E4
:100DF000252B00F33D81202B00F07F82232B00F078
:100E00007C8235E14C3B2E2B00F2328101A252F85C
:100E100023F000BFFB1200007110000071100000F1
:100E200071100000711000007110000071100000BE
:100E300071100000711000007110000071100000AE
:100E4000711000004F0F00007110000071100000C1
:100E5000711000007110000071100000711000008E
:100E600071100000711000009F0F00007110000051
:100E70004F0F00004F0F00009F0F00009F0F00005A
:100E80009F0F0000FB1200004F0F0000250F000015
:100E900071100000FB120000711000008B0F0000A9
:100EA0004F0F00008B0F0000711000007110000048
:100EB000850F0000410F00004F0F0000711000006F
:100EC000711000004F0F000071100000330F000080
:100ED0002A3B012202FA03F34FF6DA721A40002A83
:100EE00014BF01220022D2B2002A40F0068203F091
:100EF0006252002A14BF01220022D2B2002A4ED12F
:100F000003F00103002B14BF01230023DBB2002BED
:100F100040F0B280ACE0002387F86B307B6F013B80
:100F20007B67EBE10823C7F884300823C7F88830D3
:100F3000E4E10423C7F884300423C7F88830DDE1F6
:100F40000423C7F884300423C7F88830D6E13B680F
:100F5000013B1B786C2B11D13B68023B1B786C2B3F
:100F600006D10823C7F884300823C7F8883005E085
:100F70000423C7F884300423C7F88830002387F897
:100F80006B307AE0012387F863300423C7F884309C
:100F90000423C7F88830002387F86B306DE03B6886
:100FA000013B1B784C2B13D1D7F89830073323F033
:100FB000070303F10802C7F89820D3E90023C7E923
:100FC00006230823C7F884300823C7F8883012E0C6
:100FD000D7F89830073323F0070303F10802C7F866
:100FE0009820D3E90023C7E906230823C7F88430F3
:100FF0000823C7F88830D7F88C20D7F884301344FA
:101000005A1ED7F88430B2FBF3F3D7F8842002FBE2
:1010100003F3C7F88C30FB6D002B1ED0D7F88C2063
:10102000FB6DD21AD7F888301344BA689A4202D2BC
:101030006FF01B0362E23B68013B1B784C2B06D12F
:10104000D7E90623D7F88C10C1E9002305E0D7E9DA
:101050000623D7F88C10C1E90023D7F88C20D7F8E5
:1010600088301344C7F88C30002387F86B3045E193
:10107000002387F86B3041E100BFD7F88C20D7F808
:10108000843013445A1ED7F88430B2FBF3F3D7F8F8
:10109000842002FB03F3C7F88C30FB6D002B0CD0CF
:1010A000D7F88C20FB6DD21AD7F888301344BA6871
:1010B0009A4202D26FF01B0320E297F86330002BB4
:1010C00000F0B880D7F898301A1DC7F898201B6830
:1010D000FB66FB6D002B03D0D7F88C30FA6E1A60DC
:1010E0007B6E5A1E7A66002B05DCF86E1FF05EFBE5
:1010F0000346002B01D0012300E0002387F8533082
:101100007B6803F00203002B14BF0123002387F840
:10111000523097F85330002B06D097F8523083F0B6
:101120000103DBB2002B7CD1D7F88C20FB6DD31AE6
:101130009B08FB6497F85230002B11D0FB6C7F2B7F
:101140000ED940F27B23AF4AAF49B04820F00CFCE7
:10115000AF4820F009FC40F27B21AA4820F0F4FBC4
:10116000D7F880300F2B0ED94FF42073A54AA6492B
:10117000A64820F0F9FBA74820F0F6FB4FF42071B9
:10118000A04820F0E1FBFB6D002B2DD0FB6CD9B209
:1011900007F13002D7F8803013440A461A707B6F8B
:1011A000D9B207F12002D7F8803013440A461A70EA
:1011B00097F85330002B13D007F13002D7F8803066
:1011C00013441B7863F07F03D9B207F13002D7F8DC
:1011D000803013440A461A70BB6F0133BB671BE0B3
:1011E000FB6F0133FB6717E097F85330002B03D0F8
:1011F000BB680133BB600FE097F85B30002B03D076
:10120000BB680233BB6007E0F86EFFF7E3F8024605
:10121000BB6813440233BB60D7F880300133C7F892
:101220008030D7F88C300433C7F88C30002387F82F
:10123000633063E0D7F88830042B13D1D7F89830A7
:101240001A1DC7F898201B687B64FB6D002B03D028
:10125000D7F88C307A6C1A60D7F88C300433C7F822
:101260008C304BE0D7F88830042B13D1D7F8983066
:101270001A1DC7F898201B68BB64FB6D002B03D0B8
:10128000D7F88C30BA6C1A60D7F88C300433C7F8B2
:101290008C3033E0D7F88830082B1BD1D7F8983042
:1012A000073323F0070303F10802C7F89820D3E9B6
:1012B0000023C7E90423FB6D002B05D0D7E90423E5
:1012C000D7F88C10C1E90023D7F88C300833C7F861
:1012D0008C3013E040F2C5234A4A4B494B4820F07A
:1012E00043FBD7F888104C4820F03EFB40F2C52164
:1012F000444820F029FB00BF00E000BF3B680133F9
:101300003B603B681B78002B7FF44AAD00BFD7F8E9
:101310008C20FB6DD31AB3F5806F0ED340F2D1232E
:10132000384A3949394820F01FFB3C4820F01CFB63
:1013300040F2D121334820F007FBFB6D002B07D191
:10134000D7F88C20FB6DD21ABB681344083BD5E05C
:10135000FB6D00221A60D7F88C20FB6DD31A9B0816
:10136000DAB27B6D1A7097F85B30002B07D07B6D7B
:1013700000225A70FB6FDAB27B6DDA7006E0FB6F09
:10138000DAB27B6D5A707B6D0022DA70BB6FDAB215
:101390007B6D9A70BB6F002B30D000233B6728E039
:1013A00007F130023B6F13441B785BB2002B1CDA51
:1013B00007F130023B6F13441B7803F07F0387F87B
:1013C0004330D7F88C20FB6DD31A0133BA689A42A8
:1013D00002D26FF01B0391E0D7F88C305A1CC7F88B
:1013E0008C2097F843201A7000E000BF3B6F013358
:1013F0003B673A6FD7F880309A42D1D300233B67DE
:1014000073E000BFC4AE02002CAF02000CAF0200BC
:1014100030AF020054AF020070AF020088AF02008C
:10142000BB6F002B07D007F130023B6F13441B78D2
:101430005BB2002B55DB97F85B30002B0ED00023FE
:10144000C7F88830D7F88C305A1CC7F88C2007F1C1
:1014500020013A6F0A4412781A701AE007F130023C
:101460003B6F13441B789B00FA6D13441B68FB66AB
:1014700007F130023B6F13441B789B00FA6D134455
:1014800000221A60F86EFEF7A5FF03460133C7F885
:101490008830D7F88C20FB6DD21AD7F888301344E7
:1014A0000133BA689A4202D26FF01B0326E0D7F8E4
:1014B0008C305A1CC7F88C2007F130013A6F0A446F
:1014C00012781A70D7F88820F96ED7F88C0029F0B6
:1014D000C0F8D7F88C20D7F888301344C7F88C3080
:1014E00000E000BF3B6F01333B673A6FD7F88030B5
:1014F0009A4295D3D7F88C20FB6DD31A18469037B3
:10150000BD4680BD80B483B000AF7860034A7B687D
:10151000136000BF0C37BD4680BC7047100200202E
:1015200080B500AF29F0B4F80346024A9B5818462C
:1015300080BD00BF0800000080B584B000AFF86037
:10154000B9607A603B601FF0D2F9024629F0A0F83A
:10155000034606495A50FB683A687968B868984764
:10156000FFF7DEFF034618461FF0C8F90800000029
:1015700080B584B000AF786039603B68002B44D000
:101580007B681B68FB603968F8681FF049FDB8602C
:10159000B968F8681FF03BFA034683F00103DBB239
:1015A000002B0DD0AF231B4A1B491C4820F0DCF94F
:1015B00039681B4820F0D8F9AF21164820F0C4F94B
:1015C000B968F8681FF0EEFA03461946F8681FF08C
:1015D000D8FA0246BB6893420DD0B7230D4A114991
:1015E0000E4820F0C1F939680F4820F0BDF9B72145
:1015F000084820F0A9F90022B968F8681FF02DFA10
:10160000B968F8681FF0B6FC00E000BF1037BD46AF
:1016100080BD00BFA0B00200C4B00200D8B002007C
:10162000F8B0020030B1020058B1020080B58EB0AF
:1016300000AFF860B9607A60FB681B68FB62BB684A
:101640005B42BA6813403B63BA683B6B9A4212D064
:10165000BA683B6BD31ABB60F86A1FF0DFFA024628
:101660003B6B934204D3F86A1FF0D8FA034600E0BC
:101670003B6B7B6312E0F86A1FF0D0FA0246BB684E
:10168000934205D87968F8681FF045FD034687E066
:1016900000233B63F86A1FF0C1FA7863BB685A1EE7
:1016A000BB681340002B0ED04FF4A2733E4A3F4953
:1016B0003F4820F059F93F4820F056F94FF4A27105
:1016C000394820F041F97B68002B06D07968F86A28
:1016D0001FF008FB0346002B01D0002360E07A686E
:1016E000BB681A447B6BD31A1946F86A1FF0C4FA18
:1016F000B862B96AF86A1FF0ACFC78627B6A002BAA
:1017000001D100234CE0796AF86A1FF0FEFA3862D2
:101710003A6A3B6B13441A46BB6813445A1EBB68B3
:10172000B2FBF3F3BA6803FB02F23B6BD31A3B62E2
:101730003A6A7B681344073323F00703FB61396A75
:10174000F86A1FF06DFCB861F86A1FF008F90246EC
:10175000FB699B1ADB107B61BA697B6A9A4208D9E4
:10176000BA69796AF86A1FF0B0FB796AF86A1FF003
:101770008AFBB969F86A1FF015FA02467B69934241
:1017800008D27A69B969F86A1FF09FFB7969F86A2B
:101790001FF079FB0122B969F86A1FF05EF93B6A14
:1017A00018463837BD4680BDA0B0020094B1020093
:1017B000D8B00200B0B1020080B58CB000AFF860C4
:1017C000B9607A607B68B3F5802F0ED340F2EB13DB
:1017D000634A6449644820F0C7F8644820F0C4F8BC
:1017E00040F2EB115E4820F0AFF878681FF027FA5E
:1017F00002467B6893420ED84FF4F973584A5C490D
:10180000594820F0B1F85B4820F0AEF84FF4F97178
:10181000534820F099F878681FF011FA02467B6867
:101820009B1A7B60BB68073323F00703BB62BA686F
:101830007B68134423F007037B627A6ABB6AD31A7E
:10184000DB083B6210201FF00BFA02463B6A934212
:101850000ED840F2FB13424A4749434820F084F82F
:10186000444820F081F840F2FB113D4820F06CF82C
:10187000BB6AFB61FB68FA691A60FB693A6A9A60A5
:10188000FB690022DA60396AF8691FF015FA03462D
:101890000133BB61BB6904339B0018461FF0E0F9BC
:1018A0007861F8691FF0FBF902467B6913443A6AD4
:1018B0009A420ED24FF40373294A30492A4820F045
:1018C00053F82C4820F050F84FF40371244820F0CE
:1018D0003BF80023FB6208E0FB69FA6A043200214E
:1018E00043F82210FB6A0133FB62FA6ABB699A4231
:1018F000F2DB7A690021F8691FF0F4F80022002178
:10190000F8691FF05FF901220021F8691FF0A5F8BE
:101910003A6A7B69D31A1A467969F8691FF0E2F8C6
:101920007A697969F8691FF04DF90022396AF86916
:101930001FF0D8F83A6A7B69D31A1A46396AF869EF
:101940001FF040F90122396AF8691FF086F87969B9
:10195000F8691FF098FA00BF3037BD4680BD00BF60
:10196000A0B00200D0B10200D8B00200E8B102007D
:1019700000B2020024B2020040B202006CB20200C7
:1019800080B58AB000AF786039607B6814337B62C1
:101990004FF02003EFF3118283F31288BFF36F8FB0
:1019A0003A62FB613B6AFB607B6ABB61B86917F016
:1019B000D9FB034683F00103DBB2002B0DD0722369
:1019C000104A114911481FF0CFFFB96910481FF0A4
:1019D000CBFF72210B481FF0B7FF00BF7B6A7B6112
:1019E000786917F0F7FB00BFFB683B617B683A68DA
:1019F0009A613A690121786800F0BAF800BF283787
:101A0000BD4680BD98B20200C8B20200E0B202003A
:101A100000B3020080B586B000AFF860B9607A60AC
:101A2000FB689B8B03F007033B617B68002B0EDA9E
:101A3000BB68FA6892E8030083E80300FB68184675
:101A40001FF0B2FB0121F8681FF0DEFC84E03B6967
:101A5000062B02D03B69052B5DD1BB68FA6892E882
:101A6000030083E80300FB6818461FF09DFB3B69F9
:101A7000062B2FD1B8681FF0D8FB0346002B04D0EB
:101A8000B8681FF0D2FB034600E000237B6119E039
:101A9000FB68DB8B01339AB2FB68DA837B69002B2E
:101AA0000ED07B6918461FF0F3FB0346002B05D0D0
:101AB0007B6918461FF0ECFB034602E0002300E0C0
:101AC00000237B617B69002BE2D10221F8681FF0C3
:101AD0009BFC12E03B69052B0BD040F20913204A16
:101AE000204921481FF040FF40F209111C481FF017
:101AF0002BFF0021F8681FF087FCF8681FF071FDCC
:101B00000346002B28D0FB689B8B43F020039AB23E
:101B1000FB689A8320E03B69042B11D10021F8680F
:101B20001FF072FCF8681FF05CFD0346002B13D019
:101B3000FB689B8B43F020039AB2FB689A830BE00F
:101B400040F21B13064A094907481FF00DFF40F2F7
:101B50001B1103481FF0F8FE00BF1837BD4680BDBB
:101B600018B302003CB30200E0B2020064B302000A
:101B700080B598B000AFF860B9607A60FB689B8B65
:101B800003F00703FB650023BB65FB689B8B03F039
:101B90000803002B14BF0123002387F85330BB68D0
:101BA000002B0BD140F23313924A934993481FF014
:101BB000DBFE40F233118F481FF0C6FE97F853301A
:101BC000002B21D0BB68012B07D1FB689B8B43F016
:101BD00010039AB2FB689A83F7E1BB68022B0BD023
:101BE0004FF49E73834A864984481FF0BDFE4FF42C
:101BF0009E7180481FF0A8FEFB689B8B43F020037A
:101C00009AB2FB689A83E0E107F1200318461FF0BF
:101C1000CBFA00237B65BB68022B03D1F8681FF069
:101C2000E0FCB860BB68002B00F0CE810023BB65F0
:101C3000BB68012B0AD1FB689B69BB6507F12003D8
:101C4000BA6D1946F868FFF7E5FEBFE0BB68032BE5
:101C500039D1FB6D002B0BD04FF4AB73654A69494A
:101C600066481FF081FE4FF4AB7162481FF06CFEB6
:101C7000FB6818461FF0EFFA0346002B0BD040F22A
:101C800057135C4A60495D481FF06EFE40F25711E1
:101C900058481FF059FEFB681B691B687B657B6D0C
:101CA000002B0BD14FF4AD73524A584953481FF0E3
:101CB0005BFE4FF4AD714F481FF046FE0621F868F9
:101CC0001FF0A2FB82E0BB68042B36D1FB6D022B18
:101CD0000BD040F25D13474A4D4948481FF044FE7F
:101CE00040F25D1143481FF02FFEFB68DB8B002B99
:101CF0000BD04FF4AF733F4A464940481FF034FEC3
:101D00004FF4AF713B481FF01FFEFB681B695B6817
:101D10007B657B6D002B0BD140F26113354A3B494B
:101D200036481FF021FE40F2611132481FF00CFED0
:101D30000421F8681FF068FB48E0BB68052B39D127
:101D4000FB6D012B0BD04FF4B2732A4A32492B485A
:101D50001FF00AFE4FF4B27126481FF0F5FDFB6834
:101D600018461FF078FA0346002B0BD040F265139B
:101D7000204A254921481FF0F7FD40F265111D4812
:101D80001FF0E2FDFB681B699B687B657B6D002B88
:101D90000BD14FF4B473174A1C4918481FF0E4FDE7
:101DA0004FF4B47113481FF0CFFD0521F8681FF000
:101DB0002BFB0BE040F26B130E4A18490F481FF043
:101DC000D3FD40F26B110B481FF0BEFDFB689B8BEF
:101DD00003F00703FA6D9A4222D0FB6808331846D5
:101DE0001FF039FA034683F00103DBB2002B17D052
:101DF000012316E018B3020068B30200E0B202004B
:101E000078B302008CB3020098B30200BCB30200A6
:101E1000D4B30200ECB30200FCB3020064B30200CE
:101E2000002387F8523097F8523003F0010387F807
:101E300052300023BB6097F85230002B0ED107F1CF
:101E4000200318461FF007FA034683F00103DBB2B4
:101E5000002B03D17B6D002B00F08D80FB689B8BEA
:101E600043F008039BB2FB64FB6C9AB2FB689A8355
:101E7000FB6C03F00703FB65FB681433BB647B68F2
:101E80007B61B86C17F08AF9034683F00103DBB27B
:101E9000002B0DD0F023614A614962481FF064FDB8
:101EA000B96C61481FF060FDF0215C481FF04CFDEB
:101EB0007B697B647B6C83F31188BFF36F8F00BFFA
:101EC00000BF97F85230002B04D0BA6DF96DF86856
:101ED0001FF0FAFA07F1200318461FF0BCF9034679
:101EE00083F00103DBB2002B06D007F12001BB6DAC
:101EF000FA6DF8681FF053FB7B6D002B03D07B6DF0
:101F00004A49F8689847FB6814333B644FF0200354
:101F1000EFF3118283F31288BFF36F8FFA63BB6311
:101F2000FB6BBB613B6C7B63786B17F01BF9034663
:101F300083F00103DBB2002B0DD07223374A3C49FA
:101F400038481FF011FD796B3A481FF00DFD7221E2
:101F500032481FF0F9FC00BF3B6C3B63386B17F055
:101F600039F900BFBB697B60FB689B8B23F00803DA
:101F70009AB2FB689A83FB689B8B03F01003002BDB
:101F800009D0FB689B8B23F010039AB2FB689A83FD
:101F90000123BB600EE0FB689B8B03F02003002B4A
:101FA00008D0FB689B8B23F020039AB2FB689A83CE
:101FB0000223BB60FB689B8B03F00703FB65BB68D8
:101FC000002B7FF426AE00E000BFFB681433FB62F9
:101FD0007B68FB61F86A17F0E1F8034683F00103C0
:101FE000DBB2002B0DD0F0230C4A0D490D481FF039
:101FF000BBFCF96A0C481FF0B7FCF02107481FF042
:10200000A3FCFB69BB62BB6A83F31188BFF36F8FCC
:1020100000BF00BF00BF6037BD4680BD98B2020060
:1020200014B40200E0B202002CB4020081190000D6
:10203000C8B2020000B3020080B590B000AF786073
:102040003960002387F83F30002387F83E300023B3
:1020500087F83D30396878681FF0EEF9B863BB6BDC
:10206000002B01DABB6BBFE07B6814333B634FF09E
:102070002003EFF3118283F31288BFF36F8FFA62AC
:10208000BB62FB6AFB603B6B7B62786A17F06AF8A5
:10209000034683F00103DBB2002B0DD07223544AB8
:1020A000544955481FF060FC796A54481FF05CFCA5
:1020B00072214F481FF048FC00BF3B6B3B62386AFF
:1020C00017F088F800BFFB687B617B689B8B03F08F
:1020D00007037B637B68DB8B4FF6FF72934203D170
:1020E0006FF00A03BB633BE07B6BBB637B6B022B34
:1020F00009D1012387F83D307B68DB8B01339AB22D
:102100007B68DA832CE07B6B002B05D07B6B042B88
:1021100002D07B6B062B0AD17B6B002B0CBF0123FB
:10212000002387F83E30012387F83F3018E07B6BAF
:10213000052B03D16FF08503BB6311E07B6B012B93
:102140000BD04FF4E4732E4A2E492B481FF00CFCA1
:102150004FF4E4712A481FF0F7FB6FF00403BB63F0
:1021600097F83F30002B05D07B683A681146184637
:102170001FF09FF897F83E30002B05D07A690221B6
:102180007868FFF7F5FC2EE07B681433FB617B6910
:102190003B61F86917F002F8034683F00103DBB2F4
:1021A000002B0DD0F023124A174913481FF0DCFB17
:1021B000F96916481FF0D8FBF0210D481FF0C4FB49
:1021C0003B69BB61BB6983F31188BFF36F8F00BFAD
:1021D00000BF97F83D30002B05D000237A6B39689B
:1021E00078681FF0C1F9BB6B18464037BD4680BD0B
:1021F00098B20200C8B20200E0B2020000B30200CE
:1022000018B30200FCB3020014B402002CB40200A4
:1022100080B590B000AF7860002387F83F307B68CE
:1022200014333B634FF02003EFF3118283F31288E2
:10223000BFF36F8FFA62BB62FB6AFB603B6B7B6232
:10224000786A16F08FFF034683F00103DBB2002BA0
:102250000DD072233E4A3F493F481FF085FB796A03
:102260003E481FF081FB722139481FF06DFB00BF13
:102270003B6B3B62386A16F0ADFF00BFFB687B61C9
:102280007B689B8B03F007037B637B6BBB637B6B80
:10229000022B0AD07B6B012B03D16FF00403BB63CD
:1022A00021E06FF08503BB631DE07B68DB8B002BB7
:1022B0000BD140F2EF132A4A2A4927481FF054FB5A
:1022C00040F2EF1126481FF03FFB7B68DB8B013BA0
:1022D0009AB27B68DA837B68DB8B002B0CBF01230F
:1022E000002387F83F3097F83F30002B05D07A69FC
:1022F00002217868FFF73CFC24E07B681433FB6123
:102300007B693B61F86916F049FF034683F00103DE
:10231000DBB2002B0DD0F0230D4A13490E481FF0FD
:1023200023FBF96911481FF01FFBF02108481FF03B
:102330000BFB3B69BB61BB6983F31188BFF36F8FF4
:1023400000BF00BFBB6B18464037BD4680BD00BF15
:1023500098B20200C8B20200E0B2020000B302006C
:1023600018B3020044B4020014B402002CB40200FA
:1023700080B58EB000AF786039607B68002B02D0EA
:102380003B68002B02D16FF015037EE06FF07703FE
:102390007B637B681433FB624FF02003EFF3118201
:1023A00083F31288BFF36F8FBA627B62BB6ABB6034
:1023B000FB6A3B62386A16F0D5FE034683F00103E0
:1023C000DBB2002B0DD07223324A334933481FF061
:1023D000CBFA396A32481FF0C7FA72212D481FF034
:1023E000B3FA00BFFB6AFB61F86916F0F3FE00BFA9
:1023F000BB683B617B689B8B03F007033B637B6897
:102400003A68114618461EF0DAFF0346002B16D034
:102410003B6B062B11D03B6B042B0ED03B6B052B7B
:102420000BD040F22D231F4A1F491C481FF09CFA75
:1024300040F22D211B481FF087FA3B6B7B637B68C2
:102440001433BB613B69FB60B86916F0A7FE034615
:1024500083F00103DBB2002B0DD0F0230D4A1349AA
:102460000E481FF081FAB96911481FF07DFAF0217A
:1024700008481FF069FAFB687B617B6983F3118868
:10248000BFF36F8F00BF00BF7B6B18463837BD4668
:1024900080BD00BF98B20200C8B20200E0B20200E4
:1024A00000B3020018B3020054B4020014B40200D6
:1024B0002CB4020080B586B000AF7860396000238C
:1024C0003B6100237B6178681FF0C4F8F8607B688B
:1024D0003A689A60FB68032B09D0FB68032B0ED87F
:1024E000FB68012B15D0FB68022B04D007E07B684A
:1024F0001B687B610EE07B681B683B610AE045233B
:10250000084A094909481FF02FFA452105481FF0DC
:102510001BFA00BF7B6800225A607B691846183797
:10252000BD4680BDD0B40200F4B40200F8B402008D
:1025300080B588B000AFF860B9607A600023FB61B5
:1025400007F110037A681946F8681FF0DFF8B861E0
:102550003B69BA69B968184628F07BF8FA69BB6923
:102560001344FB617A68BB69D31A7B60BA68BB69A4
:102570001344BB607B68002B02D0BB69002BDFD10A
:10258000F969F8681FF00FF978617B69002B09D0B1
:102590004923074A074908481FF0E6F9492104483A
:1025A0001FF0D2F9FB6918462037BD4680BD00BF39
:1025B00018B5020040B502004CB5020080B588B0E5
:1025C00000AFF860B9607A600023FB6107F1100387
:1025D0007A681946F8681FF028F9B861BB68002BC3
:1025E00009D03B69BA691946B86828F032F8BA6868
:1025F000BB691344BB60FA69BB691344FB617A6829
:10260000BB69D31A7B607B68002B02D0BB69002BAF
:10261000DCD1F969F8681FF055F978617B69002B06
:1026200009D08E23064A074907481FF09DF98E21DD
:1026300003481FF089F9FB6918462037BD4680BD65
:1026400018B5020040B502004CB5020080B584B058
:1026500000AF7860396020220021786828F007F800
:102660003B68DA687B68DA613B689A687B689A61E4
:102670003B681A687B681A623B685A687B685A62D2
:102680007B6800229A623B681A697B681A617B68E2
:102690005B6A18461FF07AF90346002B05D07B6869
:1026A0001B6943F001027B681A617B682C330122AD
:1026B000002118461FF082F9F860FB68002B09D052
:1026C0002E23064A064907481FF04EF92E210348DB
:1026D0001FF03AF900BF1037BD4680BDB0B502000B
:1026E000D8B50200E4B5020080B5A2B000AFF86032
:1026F000B960C7E900230023C7F8843000233B6397
:10270000012387F883300023BB620023FB67FB684B
:102710005B6ABA689A4201D900234EE1FB68143320
:102720003B674FF02003EFF3118283F31288BFF36E
:102730006F8FFA66BB66FB6EFB613B6F7B66786EE4
:1027400016F010FD034683F00103DBB2002B0DD021
:1027500072239C4A9C499D481FF006F9796E9C485B
:102760001FF002F9722197481FF0EEF800BF3B6F8F
:102770003B66386E16F02EFD00BFFB697B62BB6ABC
:10278000002B07D0BB6A1A46F96FF8681FF04FFBA1
:102790000023BB6207F12C031946F8681FF039F9D2
:1027A000034687F87B30FB6ABA689A4232D8FB68E6
:1027B0001A6AFB681B689B001344C7F88430D7F87B
:1027C000842013786FF300031370D7F884201378F4
:1027D0006FF341031370BB68FA68FA65BB65FB6D64
:1027E0001B68BA6D1946F86D1FF0D2F90246FB6DF1
:1027F0001A60FB6D1A68FB6DDB689A4205D1FB6DB0
:102800001B6943F00802FB6D1A6100BF002387F8C3
:10281000833097E097F87B30002B08D0FB6A19468D
:10282000F8681FF011FA012387F883308AE0D7E9AE
:1028300000234FF000004FF000018B4208BF82429E
:102840006ED026F05EF8034683F00103DBB2002B66
:1028500066D0FB6814333B647B6ABB61386C16F04E
:102860009DFC034683F00103DBB2002B0DD0F02367
:10287000544A584955481FF077F8396C56481FF0AC
:1028800073F8F0214F481FF05FF8BB69FB63FB6BE7
:1028900083F31188BFF36F8F00BF00BFFB6803F1A4
:1028A0002C01D7E9002308461FF098F87867FB68E9
:1028B00014337B654FF02003EFF3118283F312880A
:1028C000BFF36F8F3A65FB643B6D7B617B6DBB64CF
:1028D000B86C16F047FC034683F00103DBB2002B13
:1028E0000DD07223374A384938481FF03DF8B96C8B
:1028F00037481FF039F8722132481FF025F800BF21
:102900007B6D7B64786C16F065FC00BF7B697B6235
:102910007B6F002B0CBF0123002387F8833011E06D
:1029200097F88330002B0DD0FB681B68FB67F96AB2
:1029300007F1280307F13002F8681FF0CAF90346CF
:1029400087F88330FB681433BB637B6A3B62B86BE8
:1029500016F024FC034683F00103DBB2002B0DD0FC
:10296000F023184A1B4919481EF0FEFFB96B1A489C
:102970001EF0FAFFF02113481EF0E6FF3B6A7B636E
:102980007B6B83F31188BFF36F8F00BF00BF3B6B7E
:10299000002B0BD0FB689B69002B05D0FB689B6963
:1029A0003A6B1146F868984700233B6397F88330E9
:1029B000002B7FF4B3AED7F8843018468837BD4675
:1029C00080BD00BF04B6020034B60200E4B50200C8
:1029D0004CB6020064B602007CB6020080B58EB030
:1029E00000AF786039607B68DB6938689847786346
:1029F0007B681433BB624FF02003EFF3118283F343
:102A00001288BFF36F8F7A623B627B6A3B61BB6A5D
:102A1000FB61F86916F0A6FB034683F00103DBB205
:102A2000002B0DD07223284A284929481EF09CFF0C
:102A3000F96928481EF098FF722123481EF084FF90
:102A400000BFBB6ABB61B86916F0C4FB00BF3B693D
:102A50007B613A68137843F0010313707B685B680D
:102A60007A6B194678681FF093F802467B685A60C3
:102A700078681FF03DF87B6814333B637B69FB602B
:102A8000386B16F08BFB034683F00103DBB2002B9F
:102A90000DD0F0230C4A10490D481EF065FF396B2C
:102AA0000E481EF061FFF02107481EF04DFFFB6845
:102AB000FB62FB6A83F31188BFF36F8F00BF00BF17
:102AC00000BF3837BD4680BD04B6020034B60200F0
:102AD000E4B502004CB6020064B602007CB6020007
:102AE00090B593B000AF7860002387F847307B68DB
:102AF00014337B634FF02003EFF3118283F31288CA
:102B0000BFF36F8F3A63FB623B6BFB607B6BBB6217
:102B1000B86A16F027FB034683F00103DBB2002BF3
:102B20000DD072234F4A504950481EF01DFFB96A1C
:102B30004F481EF019FF72214A481EF005FF00BFE2
:102B40007B6B7B62786A16F045FB00BFFB687B619C
:102B500007F11803194678681EF087FF7B681A6A28
:102B60007B689B689B0013443B64BB69002B05D0CA
:102B7000386C1EF0F0FF0346002B02D000233B64AC
:102B800041E0386C1FF02AF8F863FB6B002B08D18A
:102B9000386C1EF0CDFF034683F00103DBB2002B3F
:102BA0001DD0FB6B002B05D17B68DB69386C984727
:102BB000034600E0FB6BBB637B689B68BA6B1946FE
:102BC00078681EF0E5FF02467B689A60BB6B194689
:102BD00078681FF020F8012387F8473013E03A6C3B
:102BE000137843F0020313707B689C687B68DB6991
:102BF000386C984703461A46214678681EF0C8FF8D
:102C000002467B689A607B6814333B627B693B6158
:102C1000386A16F0C3FA034683F00103DBB2002BD7
:102C20000DD0F0230F4A134910481EF09DFE396A5B
:102C300011481EF099FEF0210A481EF085FE3B69FE
:102C4000FB61FB6983F31188BFF36F8F00BF00BF87
:102C500097F84730002B7FF447AF3B6C18464C3752
:102C6000BD4690BD04B6020034B60200E4B50200D1
:102C70004CB6020064B602007CB6020080B58EB08D
:102C800000AF786039607B68DB69386898477863A3
:102C90007B681433FB624FF02003EFF3118283F360
:102CA0001288BFF36F8FBA627B62BB6ABB60FB6A3C
:102CB0003B62386A16F056FA034683F00103DBB232
:102CC000002B0DD072233E4A3E493F481EF04CFE79
:102CD000396A3E481EF048FE722139481EF034FE23
:102CE00000BFFB6AFB61F86916F074FA00BFBB68AD
:102CF0003B613B683B633A6B13786FF300031370DF
:102D00007B681B6903F00203002B08D07B681A6AFA
:102D10007B68DB689B0013443A689A421AD13A6B8D
:102D200013786FF3410313707B68DA687B689B68E4
:102D30009A4209D17B689B687A6B194678681EF0C5
:102D400027FF02467B689A607B6B194678681EF005
:102D500062FF07E07B6B23F040413A6B136861F33D
:102D60009F0313607B681433BB613B69FB60B869E8
:102D700016F014FA034683F00103DBB2002B0DD0EA
:102D8000F0230F4A124910481EF0EEFDB9691148B0
:102D90001EF0EAFDF0210A481EF0D6FDFB687B61BB
:102DA0007B6983F31188BFF36F8F00BF00BF7B681F
:102DB0002C3318461EF022FE00BF3837BD4680BDBA
:102DC00004B6020034B60200E4B502004CB60200BC
:102DD00064B602007CB602000EF0E8BE2DE9F04FAA
:102DE000BDB000AFC7E93001D7E93023C7E93A23C6
:102DF0004FF47A73C7F8E4304FF40043C7F8E0307B
:102E0000012387F8DF30002387F8DE30012387F8BD
:102E1000DD30002387F8DC3097F8DF30002B14D04A
:102E2000D7F8E420D7F8E0309A420ED2D7F8E01075
:102E3000D7F8E430B1FBF3F2D7F8E43002FB03F348
:102E4000CB1A002B01D1012300E0002387F8DB30EF
:102E500097F8DB3003F0010387F8DB3097F8DF30B9
:102E6000002B14D0D7F8E420D7F8E0309A420ED9DE
:102E7000D7F8E410D7F8E030B1FBF3F2D7F8E03040
:102E800002FB03F3CB1A002B01D1012300E0002346
:102E900087F8DA3097F8DA3003F0010387F8DA3090
:102EA000D7F8E420D7F8E0309A420CD197F8DE301A
:102EB000002B05D0D7F8E83000221C461546DEE18D
:102EC000D7E93A45DBE14FF000024FF00003C7E9D4
:102ED000342397F8DB3083F00103DBB2002B2AD0D8
:102EE00097F8DA30002B06D0D7F8E420D7F8E03096
:102EF000B2FBF3F301E0D7F8E430C7F8CC3097F831
:102F0000DD30002B09D0D7F8CC30013B00223B61EB
:102F10007A61D7E90423C7E9342397F8DC30002B22
:102F200009D0D7F8CC305B080022BB60FA60D7E943
:102F30000223C7E9342397F8DA30002B38D0D7E9D9
:102F40003A01D7E9342386183E6041EB03037B60E6
:102F5000D7E90023C7E93A2397F8DE30002B11D0D8
:102F6000D7E93A23012B0DD2D7F8E820D7F8E4109F
:102F7000D7F8E030B1FBF3F3B2FBF3F300221C46C9
:102F800015467CE1D7F8E420D7F8E030B2FBF3F344
:102F90000022C7F89830C7F89C20D7E92623D7E944
:102FA0003A01FDF7ADF802460B4614461D4666E1B0
:102FB00097F8DB30002B31D097F8DE30002B0DD0A6
:102FC000D7F8E830D7F8E010D7F8E420B1FBF2F2F8
:102FD00002FB03F300221C46154650E1D7F8E0201F
:102FE000D7F8E430B2FBF3F30022C7F89030C7F80B
:102FF0009420D7F8E830D7E924894A4602FB03F247
:10300000D7F8EC30414601FB03F31344D7F8E8202E
:103010004146A2FB01452B441D4630E197F8DE30C6
:10302000002B35D0D7F8E0300022C7F88830C7F839
:103030008C20D7F8E830D7E922AB5A4602FB03F2DE
:10304000D7F8EC30514601FB03F31344D7F8E820DE
:103050005146A2FB01894B449946D7E9342318EB2A
:103060000201C7F8801049EB0303C7F88430D7F892
:10307000E4300022BB67FA67D7E91E23D7E92001B5
:10308000FDF73EF802460B46002314461D46F6E0C7
:1030900097F8DF30002B00F08280D7F8E430002270
:1030A0003B677A677A4BD7E91C894A4603FB02F2F1
:1030B0000023414601FB03F31A44754B4146A1FB33
:1030C00003AB02EB0B039B46BAF10203BB664BF169
:1030D0000003FB664FF0FF324FF00003D7E91A01FF
:1030E000FDF70EF802460B4610461946D7F8E030B9
:1030F00000223B667A66D7E91889434603FB01F252
:103100004B4600FB03F313444246A0FB0221C7F8E1
:10311000BC10C7F8B820D7F8BC201344C7F8BC309F
:10312000D7F8BC30012B3AD2D7F8E0300022BB658B
:10313000FA65D7F8E830D7E916452A4602FB03F2CC
:10314000D7F8EC30214601FB03F31344D7F8E8200D
:103150002146A2FB0121C7F8B410C7F8B020D7F868
:10316000B4201344C7F8B430D7E93423D7E92C4549
:10317000214689183965294643EB01017965D7F85D
:10318000E4300022BB64FA64D7E91223D7E91401C2
:10319000FCF7B6FF02460B4614461D466FE0D7F813
:1031A000E43000223B647A64D7E91023D7E93A017E
:1031B000FCF7A6FF02460B4610461946D7F8E0304A
:1031C0000022BB63FA63D7E90E89434603FB01F291
:1031D0004B4600FB03F313444246A0FB0221C7F811
:1031E000AC10C7F8A820D7F8AC201344C7F8AC300F
:1031F000D7F8E43000223B637A63D7E93A01D7E994
:103200000C23FCF77DFF10461946D7F8E03000226A
:10321000BB62FA62D7E90A89434603FB01F24B46D7
:1032200000FB03F313444246A0FB0221C7F8A4109D
:10323000C7F8A020D7F8A4201344C7F8A430D7E9D2
:103240003423D7E92889414689183962494643EB36
:1032500001017962D7F8E4300022BB61FA61D7E955
:103260000623D7E90801FCF74BFF02460B46D7E9D6
:103270002A8941468C18494643EB01010D462246F6
:103280002B4610461946F437BD46BDE8F08F00BF07
:103290008033E1012DE9F04FBDB000AFC7E9300147
:1032A000D7E93023C7E93A234FF40043C7F8E430A5
:1032B0004FF47A73C7F8E030012387F8DF3000233A
:1032C00087F8DE30002387F8DD30002387F8DC3014
:1032D00097F8DF30002B14D0D7F8E420D7F8E0308F
:1032E0009A420ED2D7F8E010D7F8E430B1FBF3F2EF
:1032F000D7F8E43002FB03F3CB1A002B01D10123F2
:1033000000E0002387F8DB3097F8DB3003F001039F
:1033100087F8DB3097F8DF30002B14D0D7F8E420A3
:10332000D7F8E0309A420ED9D7F8E410D7F8E03059
:10333000B1FBF3F2D7F8E03002FB03F3CB1A002B1A
:1033400001D1012300E0002387F8DA3097F8DA3062
:1033500003F0010387F8DA30D7F8E420D7F8E0303B
:103360009A420CD197F8DE30002B05D0D7F8E83020
:1033700000221C461546DEE1D7E93A45DBE14FF075
:1033800000024FF00003C7E9342397F8DB3083F0E5
:103390000103DBB2002B2AD097F8DA30002B06D0DD
:1033A000D7F8E420D7F8E030B2FBF3F301E0D7F828
:1033B000E430C7F8CC3097F8DD30002B09D0D7F8CF
:1033C000CC30013B00223B617A61D7E90423C7E995
:1033D000342397F8DC30002B09D0D7F8CC305B08C9
:1033E0000022BB60FA60D7E90223C7E9342397F8CB
:1033F000DA30002B38D0D7E93A01D7E934238618E0
:103400003E6041EB03037B60D7E90023C7E93A2321
:1034100097F8DE30002B11D0D7E93A23012B0DD2DB
:10342000D7F8E820D7F8E410D7F8E030B1FBF3F391
:10343000B2FBF3F300221C4615467CE1D7F8E420EA
:10344000D7F8E030B2FBF3F30022C7F89830C7F8A2
:103450009C20D7E92623D7E93A01FCF751FE024622
:103460000B4614461D4666E197F8DB30002B31D041
:1034700097F8DE30002B0DD0D7F8E830D7F8E01001
:10348000D7F8E420B1FBF2F202FB03F300221C4662
:10349000154650E1D7F8E020D7F8E430B2FBF3F35B
:1034A0000022C7F89030C7F89420D7F8E830D7E961
:1034B00024894A4602FB03F2D7F8EC30414601FB6F
:1034C00003F31344D7F8E8204146A2FB01452B44FF
:1034D0001D4630E197F8DE30002B35D0D7F8E030CC
:1034E0000022C7F88830C7F88C20D7F8E830D7E931
:1034F00022AB5A4602FB03F2D7F8EC30514601FBEF
:1035000003F31344D7F8E8205146A2FB01894B444A
:103510009946D7E9342318EB0201C7F8801049EB2C
:103520000303C7F88430D7F8E4300022BB67FA679A
:10353000D7E91E23D7E92001FCF7E2FD02460B463E
:10354000002314461D46F6E097F8DF30002B00F00C
:103550008280D7F8E43000223B677A677A4BD7E95C
:103560001C894A4603FB02F20023414601FB03F398
:103570001A44754B4146A1FB03AB02EB0B039B4680
:10358000BAF10203BB664BF10003FB664FF0FF325A
:103590004FF00003D7E91A01FCF7B2FD02460B46D3
:1035A00010461946D7F8E03000223B667A66D7E924
:1035B0001889434603FB01F24B4600FB03F3134417
:1035C0004246A0FB0221C7F8BC10C7F8B820D7F8C4
:1035D000BC201344C7F8BC30D7F8BC30012B3AD21A
:1035E000D7F8E0300022BB65FA65D7F8E830D7E9B4
:1035F00016452A4602FB03F2D7F8EC30214601FBC0
:1036000003F31344D7F8E8202146A2FB0121C7F8B1
:10361000B410C7F8B020D7F8B4201344C7F8B430BA
:10362000D7E93423D7E92C4521468918396529463D
:1036300043EB01017965D7F8E4300022BB64FA64FA
:10364000D7E91223D7E91401FCF75AFD02460B46CD
:1036500014461D466FE0D7F8E43000223B647A64DC
:10366000D7E91023D7E93A01FCF74AFD02460B4699
:1036700010461946D7F8E0300022BB63FA63D7E959
:103680000E89434603FB01F24B4600FB03F3134450
:103690004246A0FB0221C7F8AC10C7F8A820D7F813
:1036A000AC201344C7F8AC30D7F8E43000223B63B9
:1036B0007A63D7E93A01D7E90C23FCF721FD1046DC
:1036C0001946D7F8E0300022BB62FA62D7E90A89CE
:1036D000434603FB01F24B4600FB03F3134442460F
:1036E000A0FB0221C7F8A410C7F8A020D7F8A42097
:1036F0001344C7F8A430D7E93423D7E928894146D1
:1037000089183962494643EB01017962D7F8E43000
:103710000022BB61FA61D7E90623D7E90801FCF76B
:10372000EFFC02460B46D7E92A8941468C184946E8
:1037300043EB01010D4622462B4610461946F4374D
:10374000BD46BDE8F08F00BF8033E10180B500AF1A
:1037500026F09EFF0346024A9B58184680BD00BFD4
:103760000800000080B582B000AF78607B68002B55
:1037700009D18B230B4A0C490C481EF0F5F88B211C
:1037800008481EF0E1F87B681B68DB68002B04D05A
:103790007B681B68DB687868984700BF0837BD46C0
:1037A00080BD00BF88B70200C0B70200D8B70200D2
:1037B00080B582B000AF78607B68002B09D19E2372
:1037C0000C4A0D490D481EF0CFF89E2109481EF005
:1037D000BBF87B681B681B69002B06D07B681B68E5
:1037E0001B6978689847034600E0002318460837AD
:1037F000BD4680BD88B70200C0B70200D8B702003E
:1038000080B582B000AF786039607B68002B09D149
:10381000B223104A104911481EF0A6F8B2210D48F3
:103820001EF092F83B68002B09D1B323094A0C49DA
:103830000A481EF099F8B32106481EF085F87B6807
:103840001B681B6839687868984700BF0837BD4611
:1038500080BD00BF88B70200C0B70200D8B7020021
:10386000F8B7020080B582B000AF786039607B683D
:10387000002B09D1C2230C4A0C490D481EF074F8E4
:10388000C22109481EF060F87B681B685B68002B4A
:1038900005D07B681B685B6839687868984700BF0B
:1038A0000837BD4680BD00BF88B70200C0B7020020
:1038B000D8B7020080B582B000AF78607B68002B7B
:1038C00009D1D023084A094909481EF04DF8D021F2
:1038D00005481EF039F87B681B689B687868984734
:1038E00000BF0837BD4680BD88B70200C0B70200E0
:1038F000D8B7020080B485B000AF78607B681B0148
:10390000044A1344FB60FB6818461437BD4680BC6C
:10391000704700BFC4AA020080B483B000AF054A5C
:10392000054BD31A1B097B607B6818460C37BD46D4
:1039300080BC7047E4AA0200C4AA020080B582B02D
:1039400000AF78607B68002B0BD140F23313084A3C
:10395000084909481EF008F840F2331104481DF0E8
:10396000F3FF7B685B685B7918460837BD4680BD0E
:1039700088B70200C0B70200D8B7020080B584B093
:1039800000AFF8600B467A60FB72FB68002B0BD12E
:103990004FF4B1730C4A0D490D481DF0E5FF4FF48B
:1039A000B17109481DF0D0FFFB681B689B69002BB3
:1039B00006D0FB681B689B69F97A7A68F8689847B3
:1039C00000BF1037BD4680BD88B70200C0B70200F7
:1039D000D8B7020080B483B000AF7860044A7B6837
:1039E00052F8233018460C37BD4680BC704700BFE4
:1039F000B81B030080B58EB002AF44481EF0AAFA8F
:103A0000F862434B1B78002B56D0424B3B624FF081
:103A10002003EFF3118283F31288BFF36F8FFA61F3
:103A2000BB61FB69BB603B6A7B61786915F09AFBFF
:103A3000034683F00103DBB2002B0DD07223364A1C
:103A4000364937481DF090FF796936481DF08CFFE4
:103A5000722131481DF078FF00BF3B6A3B61386935
:103A600015F0B8FB00BFBB68FB601EF0F2FB294BF2
:103A7000BB62FB687B60B86A15F090FB034683F07D
:103A80000103DBB2002B0DD0F023234A2649244842
:103A90001DF06AFFB96A25481DF066FFF0211E4837
:103AA0001DF052FF7B687B627B6A83F31188BFF352
:103AB0006F8F00BF00BF25E01D4B1B68002B21D07E
:103AC000FB6A002B15D14FF47A704FF00001FFF71D
:103AD00085F902460B46104619464FF000024FF09A
:103AE0000003CDE9002302460B4612481EF063FB9B
:103AF00008E0FB6A092B05D10E481EF06FFB0E484B
:103B00001EF090FB00BF3037BD4680BD6C13002017
:103B1000DC2D00208413002010B8020040B8020001
:103B2000D8B7020058B8020070B8020088B8020086
:103B300074130020D00900201405002080B500AFC8
:103B40000F4B00221A700F4B00221A600E4B0022FE
:103B50001A601EF0C5F903460C4A934205DD4FF486
:103B60007A710B4800F0C0F806E01EF0B9F9034680
:103B70001946084800F0B8F800F090FA80BD00BF80
:103B8000DC2D0020701300206C13002040420F0039
:103B9000A92202009B22020080B586B000AF034636
:103BA0000A46FB711346BB7100237B61FFF7B4FE2D
:103BB0000346092B0BD940F21913364A36493748C8
:103BC0001DF0D2FE40F2191132481DF0BDFE3448FE
:103BD0001EF0C0F90346002B01D0002355E000235E
:103BE0003B61304BFB6022E0FB681B7B002B1BD052
:103BF000F868FFF7B7FDF868FFF7DAFD0346002B1A
:103C000008D1FB685B681B6804221946F8681EF03F
:103C100022FC06E001223B6902FA03F37A691343AE
:103C20007B613B6901333B61FB681033FB60FB68E0
:103C30001D4A93420ED94FF49373164A1B491748F5
:103C40001DF092FE1A481DF08FFE4FF4937111483B
:103C50001DF07AFEFB68144A934234BF012300230F
:103C6000DBB2002BC0D1FB79002B0DD009E07869C5
:103C70001EF021FB7861BB79002B02D00A201EF0D8
:103C800025FA7B69002BF2D17B6918461837BD46AF
:103C900080BD00BFA0B8020014B90200D8B702006E
:103CA00068130020C4AA0200E4AA0200D0B80200EF
:103CB000F4B8020080B582B000AF7860074A7B6834
:103CC00013607B68002B06D0054B1B68092B02DDB7
:103CD00004481EF0A7FA0837BD4680BD74130020C3
:103CE0006C1300201405002080B582B000AF78600E
:103CF00039607B68002B02D16FF0150309E0074A99
:103D00007B681360064A3B681360386801F016F957
:103D1000002318460837BD4680BD00BF18020020AA
:103D20007813002080B582B000AF214B1B78002BA8
:103D300039D100210120FFF72FFF1E4B7B600BE0E4
:103D40007868FFF7FBFD0346002B02D07868FFF789
:103D5000B1FD7B6810337B607B68174A93420ED9B4
:103D60004FF4C473154A164916481DF0FDFD164858
:103D70001DF0FAFD4FF4C47110481DF0E5FD7B689D
:103D80000D4A934234BF01230023DBB2002BD7D16D
:103D900000BF1EF05EFA0346002BFAD100BF044BB1
:103DA00001221A7000E000BF0837BD4680BD00BF89
:103DB000DC2D0020C4AA0200E4AA0200A0B8020080
:103DC000D0B80200D8B70200F4B8020080B584B0C1
:103DD00000AF78601B4BFB6013E0F868FFF7AEFDA7
:103DE0000346002B0AD07968F8681EF09FFA034654
:103DF000002B03D07968F868FFF702FDFB681033E9
:103E0000FB60FB68104A93420ED940F2C5130F4A7B
:103E10000F4910481DF0A8FD0F481DF0A5FD40F208
:103E2000C5110A481DF090FDFB68074A934234BF54
:103E300001230023DBB2002BCFD100BF00BF10371E
:103E4000BD4680BDC4AA0200E4AA0200A0B80200D8
:103E5000D0B80200D8B70200F4B8020080B582B032
:103E600000AF00F0FFF83860184B7B600CE078681A
:103E7000FFF764FD0346002B03D039687868FFF72D
:103E8000F1FC7B6810337B607B68114A93420ED94A
:103E900040F2D1130F4A104910481DF065FD10483B
:103EA0001DF062FD40F2D1110A481DF04DFD7B6806
:103EB000074A934234BF01230023DBB2002BD6D143
:103EC00000BF00BF0837BD4680BD00BFC4AA0200C6
:103ED000E4AA0200A0B80200D0B80200D8B70200DD
:103EE000F4B8020080B588B004AF002111481EF07C
:103EF0004BF80346FB600323012B17D91EF0C4F8CF
:103F00000346FB720C4B1B687B60FB6803930B4BF7
:103F10000293002301930023009300230222796877
:103F200000201EF04FF800233B6000BF00BF103799
:103F3000BD4680BD7C130020140200203CB9020065
:103F400080B500AF074B1B7883F00103DBB2002B79
:103F500002D005481EF066F9024B01221A7000BF1C
:103F600080BD00BFDD2D0020140500202DE9B043E9
:103F700084B000AF4FF000024FF00003C7E9002308
:103F80002A4B1B7883F00103DBB2002B01D0002306
:103F900047E03B46184600F0C3F8F860FB68002B8A
:103FA00008D023481DF0E3FFF868FFF70FFFF8681B
:103FB00000F0D0F800F062F80346FB721EF0CBF977
:103FC0000346BB72FB7A002B02D1BB7A002B1BD0BD
:103FD0001EF096F802460B4610461946154BD3E9DB
:103FE0000023841A61EB030540F2E9339C4275F12A
:103FF000000309D3FB7A002B01D0FFF72FFFBB7A18
:10400000002B01D0FFF76EFF0A4BD3E9002312F516
:104010007A7843F10009074BC3E9008900F0AAF858
:10402000034618461037BD46BDE8B083DD2D00209D
:104030006C130020080A002080B582B000AF034650
:10404000FB7106481DF086FFFB79002B02D0044867
:104050001DF08DFF00BF0837BD4680BD70130020E6
:104060006C13002080B500AF002103481DF08CFFC9
:104070000346184680BD00BF7013002080B400AF17
:10408000054B1B68002BCCBF01230023DBB2184675
:10409000BD4680BC704700BF7013002080B500AFE4
:1040A00004490548FEF7D2FA044B034A1A6000BFE0
:1040B00080BD00BFC81B03008C04002080130020BB
:1040C00080B582B000AF7860796804481EF04AF984
:1040D000034618460837BD4680BD00BF8C0400204B
:1040E00080B582B000AF7860064B1B6898470246E7
:1040F0007B689A60796804481EF04CF900BF083765
:10410000BD4680BD180200208C04002080B500AFA1
:104110000248FEF7E5FC0346184680BD8C040020EB
:1041200080B584B000AF7860074A084BD31A084ABC
:10413000A2FB03235B09FB60FFF7E8FF0346184679
:104140001037BD4680BD00BFC80400208C0400208D
:104150008988888880B582B000AF7860044B1B687E
:10416000796818461EF027F900BF0837BD4680BDA4
:104170008013002080B584B000AF0023FB60084AA4
:10418000084BD31A084AA2FB03235B09BB6007480C
:104190001EF01FF9034618461037BD4680BD00BF0C
:1041A000C80400208C040020898888888C040020A2
:1041B00080B584B000AF03463960FB71164BFB60DD
:1041C00008E0FB793A681946F868FFF7D7FBFB6807
:1041D0001033FB60FB68114A93420ED94FF45473BD
:1041E0000F4A104910481DF0BFFB10481DF0BCFBE2
:1041F0004FF454710A481DF0A7FBFB68074A93422D
:1042000034BF01230023DBB2002BDAD100BF00BF93
:104210001037BD4680BD00BFC4AA0200E4AA020058
:10422000A0B80200D0B80200D8B70200F4B802006B
:1042300080B582B000AF786003481DF0F3FF00BF87
:104240000837BD4680BD00BF1405002080B58AB088
:1042500000AFF860B9607A60FFF75EFB0346002BA1
:104260000BDC4FF457732F4A2F4930481DF07CFB6D
:104270004FF457712B481DF067FB4FF0FF33FB6184
:104280000023FB7600210020FFF786FC78627B6A22
:10429000002B0AD04FF032004FF00001FEF79EFDD8
:1042A00002460B46C7E9042305E04FF0FF324FF00A
:1042B000FF33C7E90423002387F82330FFF746FACA
:1042C00003461846FFF7F6FC7B6A002B0CD0786A91
:1042D0001DF0F1FF78627B6A002B05D14FF0FF32B1
:1042E0004FF0FF33C7E904231DF0B3FF034683F00B
:1042F0000103DBB2002B10D097F82330002B06D03F
:10430000002387F8233000210020FFF751FFD7E971
:10431000042307481DF076FFD6E7012387F82330F2
:10432000D2E700BFA0B80200CCB90200D8B70200A3
:104330001405002080B588B008AF00221349144846
:1043400025F035FF4FF000004FF00001FEF746FD6D
:1043500002460B46CDE90623002304930E23039364
:10436000002302930023019300230093094B4FF491
:104370008052094909481DF0E2FE094907481DF02D
:104380000CFF00231846BD4680BD00BF314200002F
:10439000D00900204D420000003F0020100E0020F8
:1043A000E8B9020080B483B000AF78607B68044A4B
:1043B0009B1ADB0818460C37BD4680BC704700BF0F
:1043C00014AA020080B500AF0248FFF7EBFF0346D6
:1043D000184680BDC4AA020080B582B000AF7860E4
:1043E0000B46FB707B68002B09D1DF23084A094983
:1043F00009481DF0B9FADF2105481DF0A5FA7B68D0
:104400005B68FA781A7100BF0837BD4680BD00BFEF
:10441000F0B9020028BA020040BA020080B485B0A8
:1044200000AF78607B681B01044A1344FB60FB68A3
:1044300018461437BD4680BC704700BFC4AA0200AE
:1044400080B582B000AF786039607B68002B0BD1FB
:104450004FF48C730A4A0B490B481DF085FA4FF450
:104460008C7107481DF070FA7B685B683A681A60C7
:104470007B685B6801225A7100BF0837BD4680BD6A
:10448000F0B9020028BA020040BA020080B582B03A
:1044900000AF786039607B68002B09D1B823094AE6
:1044A00009490A481DF060FAB82106481DF04CFA87
:1044B0007B689A683B685B0013449B881846083702
:1044C000BD4680BD60BA020098BA020040BA020040
:1044D00090B587B002AFF860B9603B601346FB80CF
:1044E000FB68002B09D1E223124A134913481DF03F
:1044F0003BFAE2210F481DF027FA3B68002B09D157
:10450000E3230C4A0E490D481DF02EFAE321094819
:104510001DF01AFAFB681B68DC68FA883B6A009396
:104520003B68B968F868A047034618461437BD468B
:1045300090BD00BF60BA020098BA020040BA020003
:10454000A0BA020080B584B000AF03463960FB71A9
:10455000204BFB601BE0FB689B689B68DAB2FB6842
:104560009B681B68DBB21344FB72FA79FB7A9A42B0
:104570000AD2FB689B689B68DBB2FA79D31ADAB27D
:104580003B681A70FB6820E0FB681833FB60FB682F
:10459000114A93420CD95823104A114911481DF071
:1045A000E3F911481DF0E0F958210C481DF0CCF951
:1045B000FB68094A934234BF01230023DBB2002B7E
:1045C000C9D13B6800221A70002318461037BD4637
:1045D00080BD00BFE4AA0200E4AA0200B8BA02004B
:1045E000E8BA020040BA020004BB020080B584B001
:1045F00000AF0346FB7107F10B02FB791146184629
:10460000FFF7A0FFF860FB68002B09D1C123094A1E
:1046100009490A481DF0A8F9C12106481DF094F97E
:10462000FB7A1946F868FFF731FF03461846103742
:10463000BD4680BDB8BA020024BB020040BA0200E9
:1046400080B58AB002AF03463960FB71234BDB694A
:104650003B61FB793B733B689BB2FB81FB6807F1D5
:10466000140219461D481EF02DF8034683F001037D
:10467000DBB2002B2CD007F10B02FB791146184658
:10468000FFF760FFF861FB69002B09D1E523144AAD
:10469000144915481DF068F9E52111481DF054F939
:1046A000FB7A18463B689AB2796907F110030093C8
:1046B0000B460146F869FFF70BFFB861BB69002B99
:1046C00001DA002305E07B69194604481EF07DF8F5
:1046D0007B6918462037BD4680BD00BF8813002087
:1046E000B8BA020024BB020040BA020080B582B012
:1046F00000AF786039607B68DBB218461DF07CFE45
:104700000346002B0DD078681DF081FE02463B6801
:10471000934204D2084A3B6852F8333008E0002341
:1047200006E07B68DBB239681846FFF789FF03466D
:1047300018460837BD4680BD14AA020080B58CB06B
:1047400002AFB9607B600346FB731346BB73BB6B60
:10475000002B17D0FB6B3B613B690093BB6B7A6B03
:1047600010210020FCF7B8FA78627B6A002B0BDA84
:104770007823394A39493A481DF0F6F87821364805
:104780001DF0E2F800237B627A6A3B6B1344173317
:1047900023F0070303339B083B623B7D6FF3000369
:1047A0003B753B7D6FF341033B753B7D6FF38203AC
:1047B0003B75FB7B03F00703DAB23B7D62F3C50375
:1047C0003B75BB7B03F00703DAB2BB8A62F3881345
:1047D000BB827B6AC3F30A039AB27B6962F35323F9
:1047E0007B613B6BC3F30B039AB2FB8A62F30F133B
:1047F000FB82386AFFF764FCF861FB69002B02D08A
:10480000FB69103300E00023BB61BB69002B18D0AB
:10481000BB6B002B15D0796AFB6B0093BB6B7A6B7B
:10482000B869FCF759FA78627B6A002B09DA92239F
:10483000094A0A490A481DF097F8922106481DF0D6
:1048400083F87B687A69B968F8691DF0D0FF00BF0A
:104850002837BD4680BD00BFF8BB020050BC020037
:1048600030BC020080B584B000AFF860B9607A60F7
:104870007B68BA680449F8681BF0B8FF034618461D
:104880001037BD4680BD00BF79C4000080B483B03E
:1048900000AF78607B68044A9B1ADB0818460C3727
:1048A000BD4680BC704700BF14AA020080B483B02C
:1048B00000AF78607B680133034A13441B781846C5
:1048C0000C37BD4680BC7047CA27030080B586B050
:1048D00000AF786039603B687B617B695B681B680F
:1048E0007A69D268934202D178691EF070F87B69C8
:1048F0005B6818461DF0C2FF38617B699A683B69A6
:1049000013447A68D2B21A707B695B681B681A46D6
:104910007B69DB689A4209D97A23074A0749084824
:104920001DF022F87A2104481DF00EF800231846E5
:104930001837BD4680BD00BF7CBC0200ACBC020085
:10494000DCBC02000EB480B585B000AF78600023F7
:10495000FB6007F12003BB60BB68FA697968064811
:1049600007F08AFDF860FB6818461437BD46BDE8BD
:10497000804003B0704700BFCD48000080B594B0C0
:1049800004AFF860B9607A60BB6803F04403002BA1
:1049900014BF0123002387F83F3097F83F3083F09E
:1049A0000103DBB2002B06D07A683849F868FFF7BC
:1049B000C9FFB86365E0364B1B68002B5FD0354BF1
:1049C0001B687A68B2FBF3F37B60314B1B687A6833
:1049D000B2FBF3F37B637B6B3B633B6B2E4AA2FB27
:1049E0000323DB0AFB62FB6A4FF4616202FB03F301
:1049F0003A6BD31A3B633B6B284AA2FB03235B0948
:104A0000BB62BA6A13461B019B1A9B001A463B6B9A
:104A10009B1A3B631E4B1A687B68B3FBF2F101FBE8
:104A200002F29B1A7B627B6A4FF47A7203FB02F2FA
:104A3000174B1B68B2FBF3F33B627B6A4FF47A724D
:104A400003FB02F2124B1B68396A01FB03F3D31A12
:104A50004FF47A7203FB02F20D4B1B68B2FBF3F3C7
:104A6000FB61FB6902933B6A01933B6B0093BB6A5A
:104A7000FA6A0B49F868FFF765FFB86301E00023A5
:104A8000BB63BB6B18464037BD4680BDFCBC020013
:104A9000A8130020AC130020C5B3A2918988888890
:104AA00008BD020080B586B000AFF8607B600B46A1
:104AB000FB721346BB72FB7A002B14D0BB7A002B1F
:104AC0000AD00B4A7B6852F82330002B04D0084AE6
:104AD0007B6852F8233000E0064B7B617A69064917
:104AE000F868FFF72FFF00BF1837BD4680BD00BF35
:104AF000F01B030024BD02002CBD020080B584B071
:104B000000AF7860084611461A460346FB700B4614
:104B1000BB7013467B700023FB60FB78002B0CD02E
:104B2000194A7B6A52F823301A4618497868FFF709
:104B300009FF0246FB681344FB60BB69002B08D0E9
:104B4000BA6913497868FFF7FDFE0246FB68134413
:104B5000FB60FB69002B11D0BB78002B04D07B6A73
:104B6000042B01D10B4B00E00B4BFA691946786816
:104B7000FFF7E8FE0246FB681344FB60FB6818463B
:104B80001037BD4680BD00BFDC1B030030BD0200F6
:104B900038BD02003CBD020040BD020080B582B0BD
:104BA00000AF786039603B6803F01003002B0ED132
:104BB0003B6803F02003002B04D007497868FFF717
:104BC000C1FE05E005497868FFF7BCFE00E000BFC4
:104BD0000837BD4680BD00BF48BD02004CBD020085
:104BE00080B588B000AFF860B9607A603B60B96AA0
:104BF000F868FFF7D3FF0023FB6106E03749F86848
:104C0000FFF7A0FEFB690133FB61FA693B689A423A
:104C1000F4DB0023BB6120E0BB69002B08DDBB692E
:104C200003F00703002B03D12C49F868FFF78AFE35
:104C3000BB697A689A4209D9BB69BA6813441B7880
:104C40001A462749F868FFF77DFE03E02549F86812
:104C5000FFF778FEBB690133BB61BB690F2BDBDD5E
:104C60002149F868FFF76EFE00237B612DE07B6928
:104C7000002B08DD7B6903F00703002B03D11749E4
:104C8000F868FFF75FFE7B697A689A4216D97B69FC
:104C9000BA6813441B78FB74FB7C1846FFF706FECA
:104CA000034603F09703002B01D0FB7C00E02E238A
:104CB0001A460E49F868FFF745FE03E00749F86811
:104CC000FFF740FE7B6901337B617B690F2BCEDDF3
:104CD00000BF00BF2037BD4680BD00BF50BD0200F1
:104CE00054BD02005CBD020060BD020064BD020054
:104CF00080B58CB004AFF860B9603B601346FB71BF
:104D000097F83430042B0BD940F2BF13314A3249A3
:104D100032481CF029FE40F2BF112E481CF014FE50
:104D20000023FB61BB6803F00203002B14BF0123C7
:104D30000023FB76BB6803F00103002B14BF0123A3
:104D40000023BB76BB6803F00803002B14BF0123CC
:104D500000237B7600233B761DF047FB78617B695F
:104D6000002B09D07A691E49F868FFF7EBFD03466E
:104D70001A46FB691344FB61FB7E002B09D03A689D
:104D8000B968F868FFF7FAFD03461A46FB69134451
:104D9000FB6197F83420BB7E1946F8681DF030FEA1
:104DA00097F83430387EFA79797E03933B6B02931F
:104DB000FB6A0193BB6A00930346F868FFF79EFE07
:104DC00003461A46FB691344FB61FB69184620370A
:104DD000BD4680BD7CBC020068BD0200DCBC020098
:104DE00074BD020080B58CB004AFF860B9607A6021
:104DF0003B6097F82C30002B0CBF01230023FB7580
:104E0000FB7D83F00103DBB2002B12D097F82C302E
:104E10000393BB6A02933B6801937B680093BB6872
:104E20000022F96BF868FFF763FFF861214BBB6163
:104E300008E00023FB613B68012B01D11D4B00E022
:104E40001D4BBB613B6B002B14D03A6BF968B86902
:104E5000FFF708FD38613B69002B0BDA40F219239C
:104E6000164A174917481CF07FFD40F219211348D4
:104E70001CF06AFDBB6B002B08D0FA69FB6B00933A
:104E80001346BA6B796BF8681DF0DCFDFB7D83F08F
:104E90000103DBB2002B06D097F82C301A46F96BD1
:104EA000F8681DF0F3FDF8681DF091FD00BF203794
:104EB000BD4680BDCD4800006B2902007CBC0200CD
:104EC00078BD0200DCBC020080B586B000AF78601F
:104ED00039607B681B687B613B6842F20F729342CA
:104EE00028BF13463B6007F108003B68104A0521C4
:104EF0001AF08EF938617B685B685B680B220D499C
:104F000078691DF047FD3A697B685B685B6807F16B
:104F1000080178691DF03EFD7B685B685B681B22B9
:104F2000054978691DF036FD00BF1837BD4680BDC4
:104F300084BD0200041C0300101C030080B483B075
:104F400000AF78600B4B01221A6007E07B685B08BA
:104F50007B60084B1B685B00064A13607B68064A4F
:104F60009342F3D8054A7B68136000BF0C37BD46F7
:104F700080BC7047AC13002040420F00A8130020F3
:104F80002DE9F04FBDB000AFC7E93001D7E93023BC
:104F9000C7E93A234FF47A73C7F8E4304FF400437B
:104FA000C7F8E030012387F8DF30002387F8DE30D0
:104FB000012387F8DD30002387F8DC3097F8DF30F5
:104FC000002B14D0D7F8E420D7F8E0309A420ED264
:104FD000D7F8E010D7F8E430B1FBF3F2D7F8E430BB
:104FE00002FB03F3CB1A002B01D1012300E00023C5
:104FF00087F8DB3097F8DB3003F0010387F8DB300C
:1050000097F8DF30002B14D0D7F8E420D7F8E03041
:105010009A420ED9D7F8E410D7F8E030B1FBF3F29A
:10502000D7F8E03002FB03F3CB1A002B01D10123A8
:1050300000E0002387F8DA3097F8DA3003F0010354
:1050400087F8DA30D7F8E420D7F8E0309A420CD16C
:1050500097F8DE30002B05D0D7F8E83000221C4648
:105060001546DEE1D7E93A45DBE14FF000024FF0AB
:105070000003C7E9342397F8DB3083F00103DBB288
:10508000002B2AD097F8DA30002B06D0D7F8E4208E
:10509000D7F8E030B2FBF3F301E0D7F8E430C7F81B
:1050A000CC3097F8DD30002B09D0D7F8CC30013B5D
:1050B00000223B617A61D7E90423C7E9342397F8DA
:1050C000DC30002B09D0D7F8CC305B080022BB6065
:1050D000FA60D7E90223C7E9342397F8DA30002BC6
:1050E00038D0D7E93A01D7E9342386183E6041EB3E
:1050F00003037B60D7E90023C7E93A2397F8DE3042
:10510000002B11D0D7E93A23012B0DD2D7F8E82094
:10511000D7F8E410D7F8E030B1FBF3F3B2FBF3F3C8
:1051200000221C4615467CE1D7F8E420D7F8E03091
:10513000B2FBF3F30022C7F89830C7F89C20D7E9F8
:105140002623D7E93A01FAF7DBFF02460B4614465D
:105150001D4666E197F8DB30002B31D097F8DE3042
:10516000002B0DD0D7F8E830D7F8E010D7F8E420BE
:10517000B1FBF2F202FB03F300221C46154650E19C
:10518000D7F8E020D7F8E430B2FBF3F30022C7F8F9
:105190009030C7F89420D7F8E830D7E924894A46F8
:1051A00002FB03F2D7F8EC30414601FB03F3134452
:1051B000D7F8E8204146A2FB01452B441D4630E1CB
:1051C00097F8DE30002B35D0D7F8E0300022C7F852
:1051D0008830C7F88C20D7F8E830D7E922AB5A4698
:1051E00002FB03F2D7F8EC30514601FB03F3134402
:1051F000D7F8E8205146A2FB01894B449946D7E9EC
:10520000342318EB0201C7F8801049EB0303C7F8F9
:105210008430D7F8E4300022BB67FA67D7E91E2351
:10522000D7E92001FAF76CFF02460B46002314462B
:105230001D46F6E097F8DF30002B00F08280D7F8AB
:10524000E43000223B677A677A4BD7E91C894A46EB
:1052500003FB02F20023414601FB03F31A44754BA2
:105260004146A1FB03AB02EB0B039B46BAF10203E1
:10527000BB664BF10003FB664FF0FF324FF00003BB
:10528000D7E91A01FAF73CFF02460B4610461946C9
:10529000D7F8E03000223B667A66D7E918894346A2
:1052A00003FB01F24B4600FB03F313444246A0FB11
:1052B0000221C7F8BC10C7F8B820D7F8BC201344A7
:1052C000C7F8BC30D7F8BC30012B3AD2D7F8E03061
:1052D0000022BB65FA65D7F8E830D7E916452A46BB
:1052E00002FB03F2D7F8EC30214601FB03F3134431
:1052F000D7F8E8202146A2FB0121C7F8B410C7F86F
:10530000B020D7F8B4201344C7F8B430D7E9342319
:10531000D7E92C45214689183965294643EB010117
:105320007965D7F8E4300022BB64FA64D7E9122328
:10533000D7E91401FAF7E4FE02460B4614461D466F
:105340006FE0D7F8E43000223B647A64D7E9102399
:10535000D7E93A01FAF7D4FE02460B461046194641
:10536000D7F8E0300022BB63FA63D7E90E894346E1
:1053700003FB01F24B4600FB03F313444246A0FB40
:105380000221C7F8AC10C7F8A820D7F8AC20134406
:10539000C7F8AC30D7F8E43000223B637A63D7E932
:1053A0003A01D7E90C23FAF7ABFE10461946D7F8B5
:1053B000E0300022BB62FA62D7E90A89434603FB68
:1053C00001F24B4600FB03F313444246A0FB0221CB
:1053D000C7F8A410C7F8A020D7F8A4201344C7F832
:1053E000A430D7E93423D7E928894146891839629E
:1053F000494643EB01017962D7F8E4300022BB61F2
:10540000FA61D7E90623D7E90801FAF779FE0246DF
:105410000B46D7E92A8941468C18494643EB0101DE
:105420000D4622462B4610461946F437BD46BDE8C8
:10543000F08F00BF8033E10180B400AF024B1B78D6
:105440001846BD4680BC7047DE2D002080B400AFFA
:10545000024B1B781846BD4680BC7047DE2D0020ED
:1054600080B582B000AF78607B68002B03D10A4B17
:1054700000221A700CE0FFF7DFFF0346002B04D078
:1054800041F288301DF0A8FB02E005201DF07CFBF6
:1054900000BF0837BD4680BDDF2D002080B582B03B
:1054A00000AF78600E4B01221A70FFF7CFFF034662
:1054B000002B10D005E07B685A1E7A601846FFF773
:1054C000CFFF002012F036FB0346002B03D0044B25
:1054D0001B78002BEFD100BF0837BD4680BD00BF51
:1054E000DF2D002080B586B000AFF860B9607A602B
:1054F00000237B6104233B61FFF79EFF034683F09B
:105500000103DBB2002B0BD012F030FBBA68F96854
:10551000002012F093FA03467B6112F035FB06E09F
:10552000BA68F968002012F089FA03467B617B694A
:10553000002B03D03869FFF7B1FF09E00F4B1B7850
:10554000002B05D03B69013B3B613869FFF788FFC1
:105550007B69002B03D1094B1B78002BCCD17B69D5
:10556000002B03D1054B1B78002B01D1BB6800E059
:10557000002318461837BD4680BD00BFDF2D002030
:1055800080B483B000AF7860054B01221A70054BE0
:10559000054A1A6000BF0C37BD4680BC704700BF8B
:1055A000DF2D0020C8130020B013002080B582B08A
:1055B00000AF7860044B01221A7004481DF02AFBEA
:1055C00000BF0837BD4680BDDE2D00202C1C030027
:1055D00080B582B000AF78603960396803481DF04B
:1055E00024FB00BF0837BD4680BD00BF2C1C030054
:1055F00080B584B000AF786039601DF0F8FAF860CB
:10560000074B1B681846FEF7E5F9B8603968BB68B8
:10561000FA680448984700BF1037BD4680BD00BFF8
:10562000DC1300202C1C030080B483B000AF786032
:105630003960044A3B681360002318460C37BD46A6
:1056400080BC7047DC13002080B586B000AFF860E6
:10565000B9607A60214B18461DF06DFB0346002BA4
:1056600010D023F04EF9034683F00103DBB2002B88
:1056700008D01A4B18461DF04AFB0346002B01DAEE
:10568000BB6826E000237B610AE01448FA687B6966
:1056900013441B7819461DF02BFB7B6901337B619A
:1056A0007A69BB689A42F0D300BF0C4B18461DF0D4
:1056B00042FB0346002B0BD023F023F9034683F073
:1056C0000103DBB2002B03D0044B18461DF029FB6D
:1056D000BB6818461837BD4680BD00BF80A70200D2
:1056E00080B584B000AF786039601DF0ABFAF86027
:1056F000074B1B681846FEF76DF9B8603968BB6840
:10570000FA680448984700BF1037BD4680BD00BF07
:10571000F4130020581C030080B483B000AF7860FD
:105720003960044A3B681360002318460C37BD46B5
:1057300080BC7047F413002080B582B000AF786061
:105740000B4B18461DF0B5FA034683F00103DBB29C
:10575000002B09D07F23074A074908481CF004F9A9
:105760007F2104481CF0F0F80837BD4680BD00BF1B
:1057700080A7020054BE020094BE0200B0BE020028
:1057800080B582B000AF7860044B01221A700448E3
:105790001DF06BFA00BF0837BD4680BDE02D00202C
:1057A000581C030080B582B000AF7860396039685A
:1057B00003481DF065FA00BF0837BD4680BD00BF35
:1057C000581C030090B591B00AAF78600223032BF8
:1057D0002AD91DF0BAFA0346FB75154B1B683B61CD
:1057E0007B681B781A467B685B7819467B685B8808
:1057F00018467B689B881C467B68DB880893079467
:105800000690059104920B4B03930B4B02930823D4
:1058100001930023009300230422396900201DF026
:10582000C1FA0023FB6000BF00BF1C37BD4690BD1E
:105830001C020020841C0300F0BE020080B500AFF3
:1058400008220021024824F012FF00BF80BD00BFE3
:10585000CB14002080B483B000AF03460A46FB712E
:105860001346BB71FB79072B07D8FB79064A134413
:10587000BA7983F8BB20012300E0002318460C37D7
:10588000BD4680BC704700BF1014002080B483B0B8
:1058900000AF0346FB71FB79072B05D8FB79054A5E
:1058A000134493F8BB3000E0002318460C37BD4684
:1058B00080BC70471014002080B596B006AFF86029
:1058C000B9607A60FB681B78C3F34113DBB2BB633A
:1058D000BB6B032B1DD90223032B18D91DF035FAFE
:1058E0000346FB77364B1B68BB61BB6B0493354BA0
:1058F0000393354B02930823019300230093002365
:105900000422B96900201DF04DFA00237B610023B9
:1059100052E02E4ABB6B0A3352F82330FB63FB6B19
:10592000002B1ED10223032B19D91DF00EFA0346BA
:1059300087F82B30224B1B687B62BB6B0493214B97
:105940000393234B02930823019300230093002326
:105950000422796A00201DF025FA00233B6200230F
:105960002AE0FB6B7A68B968F86898470346002B11
:1059700021DA0223032B19D91DF0E7F9034687F832
:1059800037300F4B1B683B63BB6B04930D4B03938A
:10599000104B029308230193002300930023042259
:1059A000396B00201DF0FEF90023FB62F868FFF759
:1059B00009FF002300E0012318464037BD4680BDA3
:1059C0001C020020941C030034BF020010140020AD
:1059D00054BF020074BF020080B58AB006AF364BD8
:1059E0001B7D83F00103DBB2002B58D0324BDB6808
:1059F0003B60314B9968304BDB681A463B46802050
:105A000001F010FC2C4B9A683B6813442A4A9360BF
:105A1000294BDB681A463B68D31A1A46264BDA60D4
:105A2000254BDB68002B43D13B68002B40D0224B39
:105A3000DB881A46204B1B699A4239DD1E4B1B69D5
:105A40001D4A92F8C82093FBF2F101FB02F29B1A67
:105A5000002B2DD10223032B1DD91DF076F903460F
:105A6000FB73164B1B68BB60134BDB881A46124B4B
:105A70001B6905930492124B0393124B0293082364
:105A800001930023009300230422B96800201DF035
:105A900089F900237B60084B01221A7508E0064B48
:105AA00000221A75002300220021802008F0CCFB80
:105AB00000BF1037BD4680BD101400201C0200201E
:105AC000A81C03008CBF020080B5A4B006AF03463B
:105AD0000A46FB711346BB7100233B619E4BBB66BC
